{
  "transactions": [
    {
      "hash": "0xa2a85913b852db9c012fa706e3305ba4805daed64bccd587f930ff10fc74b089",
      "transactionType": "CALL",
      "contractName": null,
      "contractAddress": "0x3b03b3caabd49ca12de9eba46a6a2950700b1db4",
      "function": "addWorkloadToPolicy(bytes32,string,string[])",
      "arguments": [
        "0xf724e7d117f5655cf33beefdfc7d31e930278fcb65cf6d1de632595e97ca82b2",
        "1234567890abcdef1234567890abcdef12345678",
        "[https://github.com/flashbots/flashbots-images/commit/a5aa6c75fbecc4b88faf4886cbd3cb2c667f4a8c, https://ipfs.io/ipfs/bafybeihkoviema7g3gxyt6la7vd5ho32ictqbilu3wnlo3rs7ewhnp7lly]"
      ],
      "transaction": {
        "from": "0x9654a3786f960db19a64dff16fdc34ed6090a760",
        "to": "0x3b03b3caabd49ca12de9eba46a6a2950700b1db4",
        "gas": "0x6c8f3",
        "value": "0x0",
        "input": "0x4f3a415af724e7d117f5655cf33beefdfc7d31e930278fcb65cf6d1de632595e97ca82b2000000000000000000000000000000000000000000000000000000000000006000000000000000000000000000000000000000000000000000000000000000c00000000000000000000000000000000000000000000000000000000000000028313233343536373839306162636465663132333435363738393061626364656631323334353637380000000000000000000000000000000000000000000000000000000000000000000000000000000000000000000000000000000000000002000000000000000000000000000000000000000000000000000000000000004000000000000000000000000000000000000000000000000000000000000000c0000000000000000000000000000000000000000000000000000000000000005d68747470733a2f2f6769746875622e636f6d2f666c617368626f74732f666c617368626f74732d696d616765732f636f6d6d69742f61356161366337356662656363346238386661663438383663626433636232633636376634613863000000000000000000000000000000000000000000000000000000000000000000005068747470733a2f2f697066732e696f2f697066732f62616679626569686b6f7669656d6137673367787974366c6137766435686f33326963747162696c7533776e6c6f337273376577686e70376c6c7900000000000000000000000000000000",
        "nonce": "0xe93",
        "chainId": "0x515"
      },
      "additionalContracts": [],
      "isFixedGasLimit": false
    }
  ],
  "receipts": [
    {
      "status": "0x1",
      "cumulativeGasUsed": "0x5ad55",
      "logs": [
        {
          "address": "0x3b03b3caabd49ca12de9eba46a6a2950700b1db4",
          "topics": [
            "0xcbb92e241e191fed6d0b0da0a918c7dcf595e77d868e2e3bf9e6b0b91589c7ad"
          ],
          "data": "0xf724e7d117f5655cf33beefdfc7d31e930278fcb65cf6d1de632595e97ca82b2",
          "blockHash": "0x64f0f9475c046860e4f2372ce14ecea8cad0a3e7cf56364006b818ffa884bb79",
          "blockNumber": "0x19e10a8",
          "transactionHash": "0xa2a85913b852db9c012fa706e3305ba4805daed64bccd587f930ff10fc74b089",
          "transactionIndex": "0x2",
          "logIndex": "0x0",
          "removed": false
        }
      ],
      "logsBloom": "0x00000000000000000000000000000000000000000002000000000000000000000000000002000000000000000000000000000000000000000000000000000000010000000000000000000000000000000000000000000000000000000000000000000000000000000000002000000000000000000000000000000000000000000000000000000000000000000000000000000000000000000000000000000000000000000000000000000000000000000000000000000000000000000000000000000000000000000000000000000000020000000000000000000000000000000000000000000000000000000000000000000000000000000000000400000000",
      "type": "0x2",
      "transactionHash": "0xa2a85913b852db9c012fa706e3305ba4805daed64bccd587f930ff10fc74b089",
      "transactionIndex": "0x2",
      "blockHash": "0x64f0f9475c046860e4f2372ce14ecea8cad0a3e7cf56364006b818ffa884bb79",
      "blockNumber": "0x19e10a8",
      "gasUsed": "0x4a3a9",
      "effectiveGasPrice": "0xfd",
      "from": "0x9654a3786f960db19a64dff16fdc34ed6090a760",
      "to": "0x3b03b3caabd49ca12de9eba46a6a2950700b1db4",
      "contractAddress": null,
      "l1BaseFeeScalar": "0x7d0",
      "l1BlobBaseFee": "0x1",
      "l1BlobBaseFeeScalar": "0xdbba0",
      "l1Fee": "0x71036d",
      "l1GasPrice": "0xc734d",
      "l1GasUsed": "0x11ba"
    }
  ],
  "libraries": [],
  "pending": [],
  "returns": {},
  "timestamp": 1753988596,
  "chain": 1301,
  "commit": "49dcb19"
}