{
  "transactions": [
    {
      "hash": "0x3928ad15ea8824bb77941bb8d353d155e8a73f6e193082565ea5de169398bc55",
      "transactionType": "CALL",
      "contractName": null,
      "contractAddress": "0x1c7b62c43c70e76cddbe64c242a2cd69abb32941",
      "function": "addWorkloadToPolicy(bytes32)",
      "arguments": [
        "0xeee0d5f864e6d46d6da790c7d60baac5c8478eb89e86667336d3f17655e9164e"
      ],
      "transaction": {
        "from": "0x636860551bce455fa00384e171de672cd0195dd3",
        "to": "0x1c7b62c43c70e76cddbe64c242a2cd69abb32941",
        "gas": "0x1f03e",
        "value": "0x0",
        "input": "0xd3770710eee0d5f864e6d46d6da790c7d60baac5c8478eb89e86667336d3f17655e9164e",
        "nonce": "0x7",
        "chainId": "0x515"
      },
      "additionalContracts": [],
      "isFixedGasLimit": false
    }
  ],
  "receipts": [
    {
      "status": "0x1",
      "cumulativeGasUsed": "0x5494a",
      "logs": [
        {
          "address": "0x1c7b62c43c70e76cddbe64c242a2cd69abb32941",
          "topics": [
            "0xcbb92e241e191fed6d0b0da0a918c7dcf595e77d868e2e3bf9e6b0b91589c7ad"
          ],
          "data": "0xeee0d5f864e6d46d6da790c7d60baac5c8478eb89e86667336d3f17655e9164e",
          "blockHash": "0x4fa06789eb0482ada791c3041cab65bc07119776e9514f8c8b984ffb8faaaab2",
          "blockNumber": "0x1556552",
          "transactionHash": "0x3928ad15ea8824bb77941bb8d353d155e8a73f6e193082565ea5de169398bc55",
          "transactionIndex": "0x6",
          "logIndex": "0x0",
          "removed": false
        }
      ],
      "logsBloom": "0x00000000000000000000000000000000002000000000000000000000000000000000000002000000000000000000000000000000000000000000000080000000000000000000000000000000000000000000000000000000000000000000000000000000000000000000000000000000000000000000000000000000000000000000000000000000000002000000000000000000000000000000000000000000000000000000000000000000000000000000000000000000000000000000000000000000000000000000000000000000020000000000000000000000000000000000000000000000000000000000000000000000000000000000000400000000",
      "type": "0x2",
      "transactionHash": "0x3928ad15ea8824bb77941bb8d353d155e8a73f6e193082565ea5de169398bc55",
      "transactionIndex": "0x6",
      "blockHash": "0x4fa06789eb0482ada791c3041cab65bc07119776e9514f8c8b984ffb8faaaab2",
      "blockNumber": "0x1556552",
      "gasUsed": "0x16746",
      "effectiveGasPrice": "0x574",
      "from": "0x636860551bce455fa00384e171de672cd0195dd3",
      "to": "0x1c7b62c43c70e76cddbe64c242a2cd69abb32941",
      "contractAddress": null,
      "l1BaseFeeScalar": "0x7d0",
      "l1BlobBaseFee": "0x540053",
      "l1BlobBaseFeeScalar": "0xdbba0",
      "l1Fee": "0x1d882747",
      "l1GasPrice": "0x328",
      "l1GasUsed": "0x640"
    }
  ],
  "libraries": [],
  "pending": [],
  "returns": {},
  "timestamp": 1749226144,
  "chain": 1301,
  "commit": "f57568f"
}