{
  "transactions": [
    {
      "hash": "0xc3e7ff298041fa96dc8b6c0f34fb100a535b3d636ffdcef108e731033c9954ff",
      "transactionType": "CALL",
      "contractName": null,
      "contractAddress": "0x37715fab70940307bfff97e16ac036b2e2ff651a",
      "function": "addWorkloadToPolicy(bytes32,string,string[])",
      "arguments": [
        "0x306ab4fe782dde50a97584b6d4cad9375f7b5d02199c4c78821ad6622670c6b7",
        "7fc2ea1295130ca050b1170e51f9efd67768711a",
        "[https://github.com/flashbots/flashbots-images/commit/7fc2ea1295130ca050b1170e51f9efd67768711a]"
      ],
      "transaction": {
        "from": "0x6e934f0b23db097d12a9a37a4b564aef15332ca5",
        "to": "0x37715fab70940307bfff97e16ac036b2e2ff651a",
        "gas": "0x47d19",
        "value": "0x0",
        "input": "0x4f3a415a306ab4fe782dde50a97584b6d4cad9375f7b5d02199c4c78821ad6622670c6b7000000000000000000000000000000000000000000000000000000000000006000000000000000000000000000000000000000000000000000000000000000c000000000000000000000000000000000000000000000000000000000000000283766633265613132393531333063613035306231313730653531663965666436373736383731316100000000000000000000000000000000000000000000000000000000000000000000000000000000000000000000000000000000000000010000000000000000000000000000000000000000000000000000000000000020000000000000000000000000000000000000000000000000000000000000005d68747470733a2f2f6769746875622e636f6d2f666c617368626f74732f666c617368626f74732d696d616765732f636f6d6d69742f37666332656131323935313330636130353062313137306535316639656664363737363837313161000000",
        "nonce": "0x0",
        "chainId": "0x515"
      },
      "additionalContracts": [],
      "isFixedGasLimit": false
    }
  ],
  "receipts": [
    {
      "status": "0x1",
      "cumulativeGasUsed": "0x55554",
      "logs": [
        {
          "address": "0x37715fab70940307bfff97e16ac036b2e2ff651a",
          "topics": [
            "0xcbb92e241e191fed6d0b0da0a918c7dcf595e77d868e2e3bf9e6b0b91589c7ad",
            "0x306ab4fe782dde50a97584b6d4cad9375f7b5d02199c4c78821ad6622670c6b7"
          ],
          "data": "0x",
          "blockHash": "0x7eaa1ff9b222dfc91d8e277954e528b833db4a48169dfd53bb60a319b74abe7b",
          "blockNumber": "0x214b123",
          "blockTimestamp": "0x69025e6f",
          "transactionHash": "0xc3e7ff298041fa96dc8b6c0f34fb100a535b3d636ffdcef108e731033c9954ff",
          "transactionIndex": "0x4",
          "logIndex": "0x2",
          "removed": false
        }
      ],
      "logsBloom": "0x00000000000000000000000000000000000000000000000000000000000000000000000022000000000000000000000000000000000000020000000000000000000000000000000000000000000000000000000000000000000000000000000000000000000000000000000000000000000000000000000000000000000000000000000000000000000000000000000000000000000000000000000000000000000000000000000000000000000000000000000000000000040000020000000000000000000000002000000000200000020000000000000000000000000000000000000000000000000000000000000000000000000000000000000400000000",
      "type": "0x2",
      "transactionHash": "0xc3e7ff298041fa96dc8b6c0f34fb100a535b3d636ffdcef108e731033c9954ff",
      "transactionIndex": "0x4",
      "blockHash": "0x7eaa1ff9b222dfc91d8e277954e528b833db4a48169dfd53bb60a319b74abe7b",
      "blockNumber": "0x214b123",
      "gasUsed": "0x33fee",
      "effectiveGasPrice": "0x34",
      "from": "0x6e934f0b23db097d12a9a37a4b564aef15332ca5",
      "to": "0x37715fab70940307bfff97e16ac036b2e2ff651a",
      "contractAddress": null,
      "l1BaseFeeScalar": "0x7d0",
      "l1BlobBaseFee": "0x1",
      "l1BlobBaseFeeScalar": "0xdbba0",
      "l1Fee": "0xe4",
      "l1GasPrice": "0x9",
      "l1GasUsed": "0xc07"
    }
  ],
  "libraries": [],
  "pending": [],
  "returns": {},
  "timestamp": 1761762927893,
  "chain": 1301,
  "commit": "3a725a3"
}