{
  "transactions": [
    {
      "hash": "0xf048859497dee8878985936ab63b5918175f87b1f2095f66af87ba7bcebd31f4",
      "transactionType": "CALL",
      "contractName": null,
      "contractAddress": "0x2e41cb0d68d8db7ebd16cef81d7ed82e7e1fba40",
      "function": "addWorkloadToPolicy(bytes32,string,string[])",
      "arguments": [
        "0x50338c32fb84eba53e8e7c1ad62e29bd1c1631154ca2a8ec4c7b6ff55f439f0c",
        "53d431f58a0d1a76f6711518ef8d876ce8181fc2",
        "[https://github.com/flashbots/flashbots-images/commit/53d431f58a0d1a76f6711518ef8d876ce8181fc2]"
      ],
      "transaction": {
        "from": "0x9654a3786f960db19a64dff16fdc34ed6090a760",
        "to": "0x2e41cb0d68d8db7ebd16cef81d7ed82e7e1fba40",
        "value": "0x0",
        "input": "0x4f3a415a50338c32fb84eba53e8e7c1ad62e29bd1c1631154ca2a8ec4c7b6ff55f439f0c000000000000000000000000000000000000000000000000000000000000006000000000000000000000000000000000000000000000000000000000000000c000000000000000000000000000000000000000000000000000000000000000283533643433316635386130643161373666363731313531386566386438373663653831383166633200000000000000000000000000000000000000000000000000000000000000000000000000000000000000000000000000000000000000010000000000000000000000000000000000000000000000000000000000000020000000000000000000000000000000000000000000000000000000000000005d68747470733a2f2f6769746875622e636f6d2f666c617368626f74732f666c617368626f74732d696d616765732f636f6d6d69742f35336434333166353861306431613736663637313135313865663864383736636538313831666332000000",
        "nonce": "0x6e3",
        "chainId": "0x200df71"
      },
      "additionalContracts": [],
      "isFixedGasLimit": false
    }
  ],
  "receipts": [
    {
      "status": "0x1",
      "cumulativeGasUsed": "0x5d053",
      "logs": [
        {
          "address": "0x2e41cb0d68d8db7ebd16cef81d7ed82e7e1fba40",
          "topics": [
            "0xcbb92e241e191fed6d0b0da0a918c7dcf595e77d868e2e3bf9e6b0b91589c7ad",
            "0x50338c32fb84eba53e8e7c1ad62e29bd1c1631154ca2a8ec4c7b6ff55f439f0c"
          ],
          "data": "0x",
          "blockHash": "0x48fd2b41a3c49237efe49bb8bd0792509c0163ed9e2bc9e5cf2b8c588c7974ef",
          "blockNumber": "0x128b80b",
          "blockTimestamp": "0x68e01507",
          "transactionHash": "0xf048859497dee8878985936ab63b5918175f87b1f2095f66af87ba7bcebd31f4",
          "transactionIndex": "0x5",
          "logIndex": "0x3",
          "removed": false
        }
      ],
      "logsBloom": "0x00000000000000000000000000000000000000000000000100000000040000000000000002000000000000000000000000000000000000000000000000000000800000000000000000000000000000000000000000000000000000000400000000000000000000000000000000000000000000000000000000000000000000000000000000000000000000000000000000000000000002000000000000000000000000000000000000000000000000000000000000080000000000000000000000000000000000000000000000000000020000000000000000000000000000000000000000000000000000000000000000000000000000000000000400000000",
      "type": "0x2",
      "transactionHash": "0xf048859497dee8878985936ab63b5918175f87b1f2095f66af87ba7bcebd31f4",
      "transactionIndex": "0x5",
      "blockHash": "0x48fd2b41a3c49237efe49bb8bd0792509c0163ed9e2bc9e5cf2b8c588c7974ef",
      "blockNumber": "0x128b80b",
      "gasUsed": "0x33fee",
      "effectiveGasPrice": "0xfc",
      "from": "0x9654a3786f960db19a64dff16fdc34ed6090a760",
      "to": "0x2e41cb0d68d8db7ebd16cef81d7ed82e7e1fba40",
      "contractAddress": null,
      "l1BaseFeeScalar": "0x558",
      "l1BlobBaseFee": "0x1",
      "l1BlobBaseFeeScalar": "0xc5fc5",
      "l1Fee": "0xdc",
      "l1GasPrice": "0xe",
      "l1GasUsed": "0xc57"
    }
  ],
  "libraries": [],
  "pending": [],
  "returns": {},
  "timestamp": 1759515912305,
  "chain": 33611633,
  "commit": "d1f2483"
}