{
  "transactions": [
    {
      "hash": "0x6a1d7bbe6c3b7fa82a7dff1ff9514201e1ca30297240eff64e4148726c7316a6",
      "transactionType": "CALL",
      "contractName": null,
      "contractAddress": "0x41ba1db26cb65fb16c0ce63d419b8442170ed239",
      "function": "addWorkloadToPolicy(bytes32)",
      "arguments": [
        "0xeee0d5f864e6d46d6da790c7d60baac5c8478eb89e86667336d3f17655e9164e"
      ],
      "transaction": {
        "from": "0x636860551bce455fa00384e171de672cd0195dd3",
        "to": "0x41ba1db26cb65fb16c0ce63d419b8442170ed239",
        "value": "0x0",
        "input": "0xd3770710eee0d5f864e6d46d6da790c7d60baac5c8478eb89e86667336d3f17655e9164e",
        "nonce": "0x27",
        "chainId": "0x200df71"
      },
      "additionalContracts": [],
      "isFixedGasLimit": false
    }
  ],
  "receipts": [
    {
      "status": "0x1",
      "cumulativeGasUsed": "0x27a03",
      "logs": [
        {
          "address": "0x41ba1db26cb65fb16c0ce63d419b8442170ed239",
          "topics": [
            "0xcbb92e241e191fed6d0b0da0a918c7dcf595e77d868e2e3bf9e6b0b91589c7ad"
          ],
          "data": "0xeee0d5f864e6d46d6da790c7d60baac5c8478eb89e86667336d3f17655e9164e",
          "blockHash": "0x55f9f5fd05c359c00ae1b63faea0e15744bf54807b037a666d0d83667dbcd427",
          "blockNumber": "0xacbb6c",
          "transactionHash": "0x6a1d7bbe6c3b7fa82a7dff1ff9514201e1ca30297240eff64e4148726c7316a6",
          "transactionIndex": "0x2",
          "logIndex": "0x0",
          "removed": false
        }
      ],
      "logsBloom": "0x00000000000000000000000000000000000000000000000000000000000000000000000002000000000000000000000000000000000000000000000000000000000040000000000000000000000000000000000000000008000000000000000000000000000000000000000000000000000000000000000000000000000000000000000000000000000000000000000000000000000000000000000000000000000000000000000000000000000000000000000000000000000000000000000000000000000000000000000000000000020000010000000000000000000000000000000000000000000000000000000000000000000000000000000400000000",
      "type": "0x2",
      "transactionHash": "0x6a1d7bbe6c3b7fa82a7dff1ff9514201e1ca30297240eff64e4148726c7316a6",
      "transactionIndex": "0x2",
      "blockHash": "0x55f9f5fd05c359c00ae1b63faea0e15744bf54807b037a666d0d83667dbcd427",
      "blockNumber": "0xacbb6c",
      "gasUsed": "0x17b29",
      "effectiveGasPrice": "0xfc",
      "from": "0x636860551bce455fa00384e171de672cd0195dd3",
      "to": "0x41ba1db26cb65fb16c0ce63d419b8442170ed239",
      "contractAddress": null,
      "l1BaseFeeScalar": "0x558",
      "l1BlobBaseFee": "0x1",
      "l1BlobBaseFeeScalar": "0xc5fc5",
      "l1Fee": "0x1648fe62ad",
      "l1GasPrice": "0xa2e72b94a",
      "l1GasUsed": "0x640"
    }
  ],
  "libraries": [],
  "pending": [],
  "returns": {},
  "timestamp": 1751390312,
  "chain": 33611633,
  "commit": "8a8573b"
}